[{"name": "single_key_default_sighash", "inputIndex": 0, "hashType": "00", "spentOutputs": [{"amount": 1000, "scriptPubKey": "5220eb8101a6b4003cd6f055661cf528b9afde78b44ae2decb0fdaf49c847cc53d7b"}, {"amount": 2000, "scriptPubKey": "51"}], "spendTx": "02000000000102000102030405060708090a0b0c0d0e0f101112131415161718191a1b1c1d1e1f0700000000feffffff202122232425262728292a2b2c2d2e2f303132333435363738393a3b3c3d3e3f0b00000000fdffffff02840300000000000001512003000000000000010003fd600e72baa8dc56313620c36b5a7addf34f72a8580ab6901c95bf6e997d8f3ea2c0ab18fc98de2742b9bdd505a8171441fe4fb2dee8fbbfc19e20b1852a2b5691ecb8cd24ee20da030251dfe2b303d5efc294ca3d44bda8259261dee5cb4911d7e290ae63e2bcb1f8b34a15f2bc92fcf8f95d003bc8cc2c24cff3fa399a387e54fb36b35e83ece9ece4fb476d39999900893bb80459b48f0a8fd2a7aeb100826377b3a9a679d0fda7ababbab8b65e39615ba4999db0599db629c1245df93ff5f50242f7116642e56e05f66313571e6e8cc24aa49ae8693b50e3a2398a3bb2e36f1f43773ce67420f13fc560ec45aab28eed2852c3ed3a4eabb4a5757ca2b96ff1ce8506ebc2d9880ae37c79dbfa636a3f7e55064383dbf3501135ec4da3cba8b129107cda1b1b48c396c68d026947a65ecf9bd3e9c6bfb66bc04840e4ad9054cc15c95aa5f12bd5e2d46f86612d327324937ff94e39540d70923fb78fa4a00dc5c2f0cf7402ad0a6b99f15e7d195dfe3c7db4f18d0c9764d53509827658154722bd84978d4e69b78dfb0c4b474a0b71c265cef857f30b0b4027e84bbcb28d1fd6028c4efdfc114b48b6da658a850fccc422b73523db8bb015d8c66f4fb17675e183f5dc26a8cb9efc0d64cdd4ff32273639c872d78990aeedffc3f194ac1ff62f4310b490f03d2309defc5c3371b91b0317453279aead80563eb1959a54d09661fbc5de5b3df9d1a29a5780e90eee2c7651135e44d4ebc7bd388a4d67d1f5e09adafb3cb8b9f21e83bb4305b81395287bd7685ed046d120e0e3608425cab1c06e7b0f0233a9d1631774e6bc88867da5a8ca43c73816bfe93302a824c9ce19d1ba984aada11e7f9c12a37a86c3a997028e22e7562b21ea365368b530eae609dc5a29e74acde94beaebf9dbcec285113e1de0ef0d53501253e8d0f04a3064db6e4c4b844e4e77584adf7f1e2c5a570e3bc21a5ed777bc4ec232e910110e1fea963bc04fac401554cdddf4dc9bc3dd7f5b642572b7f666ae4ab91a2a79ae4ba2cd21ae81062139f64a3d45263084b65c44f3d85d123df86f531d2e63e93f2d0b2161017edfb036d6ad9dfbad1c3294a37c497867503a535bd0b3f3b21796ff995b78a452403c9b701aef2d8609e8588d1cb3b6afb7bda66de72d52dc16dde0bf5e29a7f19cb5772ea663c4ce870bc44beed97ea785debd96e52ffcbcee2282770fd418ecd8635774355d88b58ca6787d3a4e39be547654f4ae8c6734c9c9faa9f580e7b63b80558927c5ed279d0b1b67d67ddd601b06c69e6af3a944ef045410789ef1cae934eb94f8635b43855c04558c837744964d690b7104c8a80aa698c2f7b8d8f60e2943e27b1a70624a0ee406ab085510f65adec165b47f0d52eafa586767b7ed5a9f7a6ef6d4179ede4a97067163cea730043c3c925e457dbf98ff840525d5cf5d5beab9703cc87032baef0627072725f5df59b794b658aebd0375cf3c087be8ef86a6e57f7d8b6f2908d78d8c7d7875c7e05b1a885b6a3453c22168edea5297b1f61037304b83045a0f10ed9324f53ef578b8415a259cff0209c5af217fe91d309013c15a03577c2df26d29a2be1838e6bc04269656494b99e89a8a8f0f52b2f05f58fe28a288b8518efc5504af8b7f960877dc3102807e910e643aa131ab997de5f53015f9dcce63885563a75a1700a7fe23bf57c02d97a2e10f98c0bc25a8a7c0762df359885411f8187a9a79136207d369ad77464f10903884eaac01ede3c828f46ea3c250673ecd82f76dabf8c695d928aaae99b42f46a50e7a6d9355a3e8a006e729786bb4b008c1519b725c82a47c05f501e3f65818731132efe089d5b4e200958fdcc4a898494edb7972ba10b86f0eaf3cadb467ed982ec0da875ad96147956ff6b559cd0fc0aa57087b3fb5be9cf929d6cc87332cce6374eaf616086669e2fa86aac779b158814cf4c817b06d4bb127c9bea6a2c07e70cc9b03d005724c1ce56cfe8b7231a3d8404939fde8fef21d26e624d578c5e0d67f93bf389504d257b8c5d979207541efa397ab697d38046cab64340114f850485c62fd2b35cdfe77c13e4131fadc4857914cac83eaf1b00c10c89c1770f7d09fc50d706dbaf5eebf9f77ffa3870ba8697b7ab640d51af9dbaf6f478e5ea19c8b919d2f8453057d7583fcb7de96077e9c3b6a98983b5a7db55d70592de5de38adf459fca1d07367fe514d9b51b0dbcc2b6ff69846ec40225f911a2bdf761f6dd042c919b42aa5346595a68c9403cc22d1115ee7f2477797b6ae43aa4269afd235ca81de1f9a614c09cf42503879fe62e725b1603c17f188a2f69f2abb6865e882fdd0a3385ea57af7061bd25049cab2180dd05bb2b90b304e5aca4500ffbdaea58dfc4438747d54f8313bbe1cf0957f9b9df929136183c041b58b9cd6ef76e167214bc59a24036e8f480ef253c1d7edba749cd903e2733f3ec5d7558519b8370dc501a63e59bde40b102745ae78ac05601c52642a476a6a22267affdcfc206ef1caebb42237a6e4623adc3e50744d9039d39763dcbaa3a4a5dd5273e90793aaa297d62013454c91faaf608ac7562245a241746709bacb227735e939c5ec492e55aaa9033500882256a4269d269f28d7acd2a1300bba93265bad79680a2fc27b425f13f0f3ce7134ac18a988f0071882b684a0f642816f50a60018fa1f1301f9da2dbdf53bc39bb36bbce605ede570ef64a066b0e86f435cbcac5093c957ef8bd4577c147b326268b710ef313dfb3e985950644d1fd046b4c3bdf12108f3336b174ff2e48097fb6ca25d3353511eb49946f3a9c0e53e28d3ae0bf8a8d015cf8548e34819e61bb1d585830a8dd8828706c8ae7fab7e0578a6e7dfdcb3aaad51ccf5a40134b5a14ad74d34f293b8ec3bc761e2771f9dd537273fa9d6080ff09dcdb4f5a775bd147113cc85e309c165985204bf395ba54a5224c5e8c65833c94b54cbf2ce9d980dc4460e5b52c3306267b1681f364f76d529cbf7068474c6dd3bb8d7d508dbce83bcb8e58ea3510acfb3424c244d86aaca7e4d9c4935cd30165984617c115b57afb6919c075f102d19454795b1dc86dbb2a58f46050fd0ba8522f78bcbef6b2cf8fb053e1848d3fe3a0e0b1d2c13203d2cb19530f56bd1c4bf3e9205ca44c4c9d271a7a4fd924e7d07aafde9957e35e5fe361f4704e753b831168c44693b4371a7241dd20a21b478b2401ef234b17efe20c328f540af9b2d69f134d0bfd28acb9bcc14c493400c433527319f20be58074b94b6e461677341dde7b3a5f59c74dd4543af3598d656714e2461df680eafb6bffe16f3254f91cfb7c131f8de10ae527e34f8c8b68d6b9a94018a4149085f8cb01b8a2c89a8f0770c4d24525b07bcc711eefb154230e7f636145eee832c5725a64aa6ffbe7d305c9414dd7925bc664a5983c1024138721dbfcf18f6332d5727a4869347ed16b61953197b5b1c0b303834724ddc945dc082e135d63e71b954d3d2c3ae9285e7ce33fecb099973495081f17433d9ca25db2df12b0a26f0f7e5136c47a686c77d71683b920f4d0907b9c97b0780d7d803a2bcc590bd8201bf63613f06c6d0abd24ebd3e960778755fce9f435415891ca17e837d2873873000016f993ebec5ecda5eb46fb18bc87b1ef534d0228d2c09c1198f254134a9e2110b3370ec0b0f552d152ce5a76065a77560f58facc58a1d76c6c5775f68823e04773798c68797631b2bce2c3ba80710e93e3ad1380b0b6778d6ba5b5782188e91fc587c9d5467754f46061fd14d8a33f5747b12fe73e60031362bf277a61f420691f9e94f15f6b74951af69650ae471f0a4ba2d13863531e6578ef05a4ea8be974b600acdde9071fed6264526e93f525962b62098f7c94f94e872bff1862703a799f6b979a4c0d426b4ea8f86ed74c1dbef943ee3a6687d517d15cccf08f25563b754876c9937bb3beba627685b6aa3cb08e0109ce693342739942a2e5ca556bd4b3977ca2464936ac9657e697253a8908f02fd4c0ad440acfd100463629c9ab0f4802766aec7773911e26667cccb30aafcee38ecbe6fb59167460d62d1be005cd0261917cd85ece6f92f1cf6508859e8af74114d6bb0674a70e740eb63b818cee40351661a8eddbc1e3d23701657c338fc15e268f1d1138705b9ee210e7b5fd617d370f1f056da317ea0aca33bb3a9eee1aa0aa15680d91f2fe9cd71612b1633a0915122a48214e69f7a315467d844b746713fe30559402cd07563d12fb8b89e2b8e8d13575a151f6a4d245a291160d6da8dbee7adafb0da9b301ae475e822674c6211457f46a4bf3e24cd20c08386ad40f2ff0e095238aad7026528823ed816ea2189151c25cd25d5d59e70bd8df891494434dd2d7fdbb468763e325ffda2af73b8d9aa72f09ed08fffce1ba9c36bcca3b97af124666e32e8ba8f27487c1884eedf03ef0bb0db11b04c3996c013020bcded126d8378af430cea039f8514a9a4ad6601ef248ea1e1061c0bb30e3984e8fb1d4b1ed48f906decb6e71d981b59209bc35ae9daf9dd7564d4bd8ab2efbaafe94e70a00d29d9b10147464790edc46088e4cc64af55813260af2b5906144a6537997a4b7694240ca7c26d2588cab50eee8ca6c3aeab68f609f29816959ed7d672a6b80bbae797d8d053f4fb73a1b9ef48f86204dc7c1670734744b18945f75a9312cbead33e63f91da4a387aede00642576cd0dc823f27aa4616edbbccdac32b1d86e9d70124e4c153a25a387a983505c2c68de4fb61a87a77016219daf18b0b106aa6068bb044986cc9b33f468914184410666b2bb604d7b7af7c702bda9841ff68709e61c82a391c3afe0a2ed236bca41b2f259b344b3d3b6297275bb8a5b2c6a433c6285ff5d2474bba6591601ed013008502f3aa6d217013a599a592de92ed005fa72ccb1323b7d182d7a870a3e70a70085e164fbda54cc5ddf092bf8562e1409ffc62fed68cc77418f9bea8c8c721dcc2c7115bd39344276a1879bbfd600cabfa8de97bc1239cb502c6cb6c83ed72fe333d50a3de0f1a08d1a6a6c89c15f8754f6fefeaa7edbfa74fe127f1a306e3726e37cbe6d1831948e35bf6448c6cf46f6306a3d62bca1fd511c7f7eef7ef4a848c11bf78b9b7ad78b547699fd4688c27a687b420e4303f0849d933bdf6ec9367caa1a6ab7bb2b0bbd2d6d765ab98b27c12220ff39b4fff5f270b8f8ab3f45cb830aae5962993b0c839087550bef40903f571eb301c10020a10700", "leafScript": "20ff39b4fff5f270b8f8ab3f45cb830aae5962993b0c839087550bef40903f571eb3", "leafVersion": "c0", "leafHash": "eb8101a6b4003cd6f055661cf528b9afde78b44ae2decb0fdaf49c847cc53d7b", "p2mrSigMsg": "00000200000020a10700a75f2a5a5ee18d80aa465d88c1e203099778a84611c4da69a908622c5f04c6c065a3abf28eed7c1f8ffd6e9c52076d9d2828ea37e468a2ba09d5353ea032ada6e94bf9ef19bd758adb16c673e2fca08de01d6e792b5414bc75c54b1de748c4a9df066fa642a4689526ec2f23644ba5d3dd496948154f10619dd91f7c476f2c0ce7cf13937bdffb2598083f14b97a41fb0a3340fe59887291133506b8c8b7828b0200000000eb8101a6b4003cd6f055661cf528b9afde78b44ae2decb0fdaf49c847cc53d7b00ffffffff", "p2mrSighash": "f56df8a17d5e1bd271bf621d18eb5a26d7d7787c3ad79d708094473a189de264"}, {"name": "single_key_sighash_none", "inputIndex": 0, "hashType": "02", "spentOutputs": [{"amount": 1000, "scriptPubKey": "5220cc6e02a00a08d8911bf9aef8edf1b717218fbe3961304bab6edcf84466d101c2"}, {"amount": 2000, "scriptPubKey": "51"}], "spendTx": "02000000000102000102030405060708090a0b0c0d0e0f101112131415161718191a1b1c1d1e1f0700000000feffffff202122232425262728292a2b2c2d2e2f303132333435363738393a3b3c3d3e3f0b00000000fdffffff02840300000000000001512003000000000000010003fd610e081efa7da957fb8b38a7448a94da499a3d400c1cde4e8c83c6ef256ff3a709e4902b872f7858b4067ce68b9c2ca854ed3c2c68d2afae371cbf14656cc5f7b24a15d99dff32c1b81b2e2491b085975de38c214ecede7a601bfc1dfad7dec4dfb104f35af1f448234f9344eacc800f325ac4b339c248065e6ce15776bed43c4a62aa7a012bd7b79ecda6629bdf7d87220ee5dd27b8d70085f73e4ed16612bd778f3c5d7c686b096b64eba5375192dec269e2ff72eb622a9dcda47c54135cf63687e305deac7e900f72775fef7c3806d48a068858c5a27b9ffd63b5c553282e469828c6d804e71d732137aa970ed0d7976506713456837812e06db55d915b095bc5089be3f06e07d81235ca2c332d2971e70290db13de0e80457c475c7a0880922c1a9d913ef62244e5ac727113b5af1dc1e1771b562f5e60ad6e1e0841725256e84f74b3c3393ae96beacc1c3a9b1e2da13c1c460d3f91b3d4b4069b508265ebbacd86a58b064c60c855456ff6bc66a257100cdb65a3f173af1c115e0ac78a28b00ff84a1160d9a619ac634ae7616bd21a8b0e5cbcb43cc65c0fddf4d4ec0d89997f4b710736f512e6cab403a0e01f10d1a95d75b87c318e0afc76d612be81cc45488f41de8e8a1d4bff384745b0d24652f9c4ba80e1a8ddb101231f149587432c46a130c3c3c70c80cb844b702295a9311fed3817465be8186a0c45fb55f34d94bb12da8286cc75ed58186e52d9fffe7071fc672310bf015fa0445c4c7a72caeb073d51b51ae24200d15c6aa1baaadd631e893a87b65af0b23bc64bfce18de81c458f72846c706ebfff16eacc6ac179646623aa1b6b9333286f3a6f77d1511fab75c4d1eb7e6c46b8191486c7a876ce27f37b82633d6502582e4919faf227a25518642ccd6867f62e2e532ee139b1521f5442aecc9f91625c369a175fde1afe2ecc5b04bce6a209aed7344a8828e4bc7be0f46b9370c1c76818cb5ee621509af4d49b5cf9da880de876c2f69268026dedceb1618e1da91c807bde434b3acc9e69f237a42d9648afeb1979a50a8172d977a7550d8b80b5aecb910734c7b7aae02d022bf0a950baa0ad3fd7d2df24438c6ec31ff46365a44403e1fcce6482cc4d51b006967633f66b2e0f2c0b0f644d40920cf1a0513d9fba693a9b745992938f7ab618a825e85f5adeb9898e6a3cab26054b5578576ea8e331f359d6e37455d7972ebe59ed1c9048058e21cb0f1b593451e0f4f914da21f3bdc3b98ae8f208ff298a48579c86ae95fea9f9baa5e98374fdfdf1b6a0a9eeb839c27f8dede231f9ba0ef2d475f0856e84fb68385c3791ce37260270769c30aa18940c23b2eec395018d4bceadc86efe47e95374408300c140015aaab2901296914f1d8e93c25b915b985764ed3a7b69324ae0d4ee71aa2d3d69ff96eeee65a0aaf577acb1ce1f9e19dd7da1158d4b1ec60aa651361e949f8ab1875192b94b6eb275a61305d7d5b4aae5f561402ecef002f45774bd75df7bc0dc6e4708f921d13a482aa76a6bcb00ece370439655fbd04470042fb647be4e0f19b98f6ab0af8669290516bc1019dcb5453089552a500cc2d7f73325cd1db43eaace50871671cd7ed6ccf300f54c9e33ac3e06529b84bd4b7764e5ca55261e4d6e65edac9d824166045b076b2ed4b1349f47afc5e249fbd10a3ee73617cf83ea9d44290d17979b33783d122131928d8c802f6e395e2f555f6d792ec5cbf665cdd4d5150113424e8b9716abbf1804d59ae1868d028b499ca0d624242d741382f9b18e9da6dc6a38905f3b8d80688c06d18262de4ecb3ca3710dd0828bb46f02aad0af505ea01e8a334aad87a1afa7424b0c7123cdabe2139f74d56ee10e4dfa320ce1c6684f386d7f9976b569a4964f76ca95bb64dec424670960c5ce8abab4d9a1ac3cae5d6cf10408b6c89762bfe37827c2a85f177cedad1a289a1e93ae91050e9af3a34be649773ed0f3a19e62ec0c8f59b2e9a4a201fb04873222a7950689d345d505a5f3c9f1c179944b30e3e3cd94239ee402ad412fd9d878be68614e665ac85ecfefdea93e87d0ceba0e1b4b5f4a03492a5731f6fdb67aac82bd1599505bf8cb50f0edd6cf85b2c41bef3756b3baa4e9883612ac156404049c3e52c6963040de7799e892094c7cc9d23b1452801e61797dc4db8c3f8b72af258d0eb163205bd6ec7289c1835080416584a59230a915849b2f63878e1b5f09aa9b1ead9f5d6a044eaf2eac7c9a7d4f0b42914155192cdd731a1de8baf0c5729e68dd37f482619f13d49f71b08f1a5ee5bc98c96a590bc31746fd2a953f1cd75dbc9de03fa431103eecbf5590c15c74652861c96f1b64cfeac34479c13ecba76b57332941589c6e148a138538832c3712a11dcdcef39d03e7446fad0839a702d3bf9a0ef89a9748e00e64689c7f49653a8595d2bab18f7a11df63785a211f7b19625f08023ea62d6911c6b9ec39b280b6715a7d95d61ea6b941224296688c3040c7369fb7bfb8268f3513a3b5eb3a00ade32822a83fd8499d0e9b929259e2a2a29833efe0c88f50f68d4af5ed46409ce32064614d83ea43c06dc587c42658e9f9243da4218dd3da47d3d7c35ec6184bfac8d9cd6d63f65f0b3c188cd1fc85a2cb8fae06412fc78c5fd66bb2842b7253bb5450b3b4aad0ef8cc88b06ffdcfa031f77560fb3a56239b701f50b5fb51a6e017c2aafca22c344eaf3f64aba01d2706109b48c047ef9f76162f62524c2c37ab98d07e041116c9fd0a551ded97a3c4da8debd18241d851966082270857324a5996629ccbb81cda5c0ca121434662fe639a7f663f54d00bac682d031e41d3f27693ba3974fad8ef06b1af7d768eff2e0156279551368dd28cb7e020585bf0d270a0cf63bb3a13541d23142560c8aca34d9edaa9533834eb373703b6a31f788dd943cb34806bf1f6f751b8e5ebf1ed8c6346dbb185f10f16d92c5c915eb9e6e43571971c5d17c907bcfc1daaed80bab654bd78990b9dc111ed2400f9b97951d60fb5ffda0bb12ea8bfd2360f2578cc077d91533fc986bd94a4598881f44051232cfaba34a666ef046e618f08d1331170518d8b5e0a1d18f8cee5e3ddb09e92b4b81ca4b303fc920c29712929632bba2f50693da7f797f8fa61740e24880d4a81dae197433ba45d2681e5fad42b7d48a0701f4d12ea80dcca2415d58e46a06a60453bfe04251f043af67f3831ef812b248b63fc8d8078c93316ca6e62fb7db85f169b3ee44f579a76f05ab0d7f9ae970fd76d5d5ffd23317e7a5c1edb5f76da2f96fdb80ae98dd223e4e7da5c4bb21ad0a07b5ae5583b36fd002c10f973dea1500d41f5a7185c242dc86e03d6504a0c41c3de464d4e54c707d334e57360075e642e39a4a88c275194ac131034747cac7848f87c159e4ee71c2d274d0addcd7d4824e6073b28565a6ca92e28824eae32932bf160af05882d938da411d4ac0af42da2e5c03bd81253d3df3710cae3da9ea08139bd169c42e859250ff1278d727fe52e80528693d69adf085ca9744d3382222fa4e0429462f175e3fdfbd4921a4a3d1864712ba2033298797475f5df5a4bfb0faf2bf475dea24f8b8ac37f23d251981f0ce1c856a29ef5761db424ca000c560a549800daf5a179593aac50210e1db95f1038a63a0ee8d3b60cbe5fa8dcbe952a7cf800b24f83f78dcb93173755c203c0b2f389c555f7445e4b16eb4efc4a4e22fdd076b7afd1fb69abc47cd9c9f29c28165616c953b7e13f6beb562b74a8ebd17ec65e15dc6c6d4d0528e0619f885b1b29a6031872d0c80284ddbab5742b85b2bd86bb285870168a9c325a9232deffc7f93205c0209b22ab004d3a59d4be346299183b733cf48a08061f075246e5d5372cb0dd7f7043ec7f55c00d2aa96eb5a8615a6da954eb7743f128190e39a4ce9382306d3f9dfd06a3a8a13eaec900be997dfe5e3ec66ef7d6be7eb770fdcefbe89ff0e08d673dbd2814705d9429317f6d6d58167b4a0e1bc3cc5dc4935728ef49996f1d08ccd264dc52108f2ab3bd502687696a34d0ac6677c864420f47942891e480fdea9d295d82e6b3e62a139d9defbac7d260a5e7b8098dbc9d768fadf25b1d4f4585d16bdb7e23ac8e32ca4e3e71de84e0023aea2a3644e954996eebe0923004a713d40a35d94e587df387d8903338dcbd7dd5b6d0c5b4dce219649cbd39156c5d3c09af9aa1f90ddc0f2ca9a4c2505f4c617fb03c859efcfc92d5951e0878d4ee52c1efe820ad1265dd0f467dec3cb032940a854a1cbe85f050a740f72a899d93b26c37ce46870d861a98268cb60108a438533d0fa905c397eefbf552733f4194b39afb356e920fa96fcfff93219ad5757eeaaefe4aabc9b29d1f419161284c7d8b6e19b0d30df661409bc5d7594b04af07e924729d4027f0371507fc50934f2ebb2aeb8eb2dc5f5a7c461368b09813ef32cfa73f47fdfe021e6b26f721f681fb70e60b452805f29dd52f6fcdd4babee9b3b63de17b01bdd6af17fe7dd702c7b7b2a9bb52df348060825504497e84320e376ec93c256eb45d978ac3f4cbed9b21de0c16b375a9af7d6ca2f3fa484a18f401e71bfaa0b952c9f39387d7728b7b9d88f7de7e81759fe15dab11c6c0a0b1101eb33627a697f78bbe945a3f44f5b8ceb3d2827a5dcf849287f512a91fbfbccd309a76ee024c61fc6b2f71ec2655e5ad009d6075165e7e0d0b241603f74a3c885d96a7089382cb58a174d249d1839ec2266cf1312a29177b9b66ad5ed4b55d1e91f701305b02d9bd58f324b3d9a2c76a318f4f3fd1cb029bd82be6ba2b94bd56589324795c3f2da5c19df2c99c4bdbb3dbd524465a8d9d9457bc2673733cd379345afff855e747837a26a5abd5f59be77c7609512d8599e533dc4942c9539a42b6ad31dbd0b68749d4980b64a8fc8d284d23376bfe338bf6aab661caaa9dce9b794f0d5ab92caf8726fd499c48d7fb84426bca2a7a7af88c9fe51bb33b08b3db85e77e19cfdee144ea120b903bc4c9c44a172fe54ba7610bf9cf6fb1f2591c0372246f62f4cb560ef7c88c574d3a74dcf54fa60cb029fa722962397d0a96d9ebd82e63ea548bd1f852e39beabb695a1ccd801b48ba22cb871c64d1866b89920ac95352f567ae2fa7ef2cf52f1f0e8418d48e8705b3af0955a3acdf3a136c1b54b441d70c1621535bfe6099486d50bb7543a022220807ea49366830464c217ee6fcce77dfe437383899d63be9783ea8c4db16bed1bb301c10020a10700", "leafScript": "20807ea49366830464c217ee6fcce77dfe437383899d63be9783ea8c4db16bed1bb3", "leafVersion": "c0", "leafHash": "cc6e02a00a08d8911bf9aef8edf1b717218fbe3961304bab6edcf84466d101c2", "p2mrSigMsg": "00020200000020a10700a75f2a5a5ee18d80aa465d88c1e203099778a84611c4da69a908622c5f04c6c065a3abf28eed7c1f8ffd6e9c52076d9d2828ea37e468a2ba09d5353ea032ada6c676f61ff1d768019faebd91b6199a932b8715779b3f9394856f5b4630f579b8df066fa642a4689526ec2f23644ba5d3dd496948154f10619dd91f7c476f2c0c0200000000cc6e02a00a08d8911bf9aef8edf1b717218fbe3961304bab6edcf84466d101c200ffffffff", "p2mrSighash": "9ba731d2bac12884605468b3ae34c7f915edbebed3ec110202eb642424de5563"}, {"name": "single_key_sighash_single_matching_output", "inputIndex": 0, "hashType": "03", "spentOutputs": [{"amount": 1000, "scriptPubKey": "5220a9f2024a0de0d8f2e063968371161bd3ebf7724686c38ff2585c860541a2e893"}, {"amount": 2000, "scriptPubKey": "51"}], "spendTx": "02000000000102000102030405060708090a0b0c0d0e0f101112131415161718191a1b1c1d1e1f0700000000feffffff202122232425262728292a2b2c2d2e2f303132333435363738393a3b3c3d3e3f0b00000000fdffffff02840300000000000001512003000000000000010003fd610e9ef116e5c98550ab862af8a1acaae9f5c3bea7db8e767ec2bae59cf2d067e7b854549999d8e72e37e4367aff35b69e6d66bcb052333dc88d59047a6e2bc21993501bd045e2438ffb2f4aedac8bd34e5dfe5c3a812f36d7f165c5f1690b638bcb65c7aa286027a04488ce0c946e7fed38f302eec206ef5a903ecd4c3dfc054f00a68c178b14a6d8388ee3bde9f8e9abd6aca18ff8ce33587355d830bf1fe99f1ecd240dde952f4f8262ce7b88038c96c53f4d89459f37da5e882f1f9f5db57c905e6c691f85af824b4755b16d5d28dff8a952b573a17abdfed434fc925447a7c6d950f00f59fe9a3797127525b8f9bd30c6e2fd19ad83c16d8a8ae18437d1fc0e89c6ff723096c082e49d6b9e9ec327710e72e2a448f6af828190067074a97abaf28e90de2b93c01b38a61521289582829a5510870a292ce2d97f9a50a5a2e60ef5a8e28aefaa190d2b4133af9a82acae40e2bf35c9169273614288df16b69ba61890fe176361f5019994168f1480542380fc42c04b452ec195293c9aaeaf1c6a601752d0757c2147a9a52758750a3bae8c858866fc26fa10191140af07ee29376f41b6e6351f3a417c9cf94653a52aa35c0364e6b883366fc126162a578d99e85c38297988f5407ed3ca34142e3e22fe728e5c1e305f8afffb8134afae7b68ae6f29e34a372d383540f5bfd106e61acdafbe313d7715f0422d6533925af5eee7e0267c7bd07c2e40b46c0d6d50b7331bb5296c949146f4ce0ca6797c093cd19e206c15fa458e966ad7d59ecb2d3a58bb2be9576bb215461b82aa707b5f1ecb221ba6099f41a72cd922d2303d1f04cca47b6086023cf0f3ec9b620388b5efc0e1e420aff7abca9276faf38b9b84f75d2383f2d3647ccaf1ae25d8e3d3d8de834d921dcfe617b8651d7d882c7edc50a84567716fbc642329a2d940315dc94096bd3036715d4a907fdb9b3685f019a98219d9ba4530ea04eaffe33f25d6a6eda65f68a85bb1ff434e171a58933588413963971ee9ee54e4bdd2b3a0e674148b272d13faf64bd0cc2a45fabd6ace05076e1847d9287d07685be2e679ca6e82d1673121d41e9be0bc4dc2394692e7f92138c8afd03da241dd53558ef6d950bec52a2c7e67a778dd8c95ebe445aba7f4bcbb170c72a0dc1c4d45737490db40c317ce5160d53887daa913dee4aa58ec5e37eadf4fb91eaa6a5dff0bbb81aa999fc22980f75418846aff309aa1f40da08a120ceab5a13e2ef29e2d5c374565c8fa1decfe87e8b16e3ae670f18ad98d4122e7f8dd19e3f536bb89ec2663757395d350af7c337372b1f4eef784eb1cf8167c6ca91f59eda2086ea979823c7fb47bc936beaa6475d613d0f93be9227d6de8fc2438bc83334bb7afc733b83ead8065b11518803a35e4792482b2a340db0dd38e57920d919e4cff3f49db39efaf3838791b072090b4e4a39e5d06e21dda9569fb4b1b01de9269e89890755b24b94d8366057da547cfe158d7ec0c5e16ddb360932668993719e386a435de5aa99fdd71b2527c2fd613f11916f0328d3f29ca4fb47b631ad6abf7f45f2906ac3e47ea7440a5d56f6fb701883bdf5277bc8b9382f0d636874e3ceb009ef487d3c2547e0e535e96a038e05beba56f897599a4c9cab0316801605ae242656ee284c4e72f551d01bd84a885d288e0f7f4ac4025ea6078c0ed22661ca33c4a6f3f0e7d1bda923629ea17bcb3d5e8c636eaecd0aff1361556e34ec56a8d7fe554ff57641e7cc839f340e36314fd53f0c37844f8032a95383715a85a42212f20d90cea6b75555f1457636e0246ef6185a7e88505c35cd9ccd84cd2a665db3c6faadd564de68ed7bd71fa197a3c8cf16ae385cd3aa31b2d1a84db1924b45b7b2cf88e0af1e5924ff08cd4acd6eb5617cd57916654991504618113ee67d0abb051806f2bf431bd7c51cd010ff66b0ad9ac1874484fe823d3d7e33ec99e82849cfb79586c68d3a44f57d5c7f4b568e1fcc10a7bda811df93768511a762c3f524b5b1051e312793beca70c02f6b9c75949164f73e0a72cc2ed10027f158ae893f728169ba601a3908e06998dc174d15d44c510018bca4d9c0cb5955381c6a01be0e6fc0c83bf3b8e70cf990f53b6766f790b045e3f7ea223398a1621c01d3d9177bb142c7f842f0738283642f90aaf1f36f7415096f2eb9f142a6396192f2fb531c497084515fdc379b1bb00c7126ca7b549c7e3f525e8b816d7fad4b685d994953c3a628658d9447ce336467c92ff5c934828f6b919e656ac2529b11ecf39881857268240b548905fb314b40aa17c788beeb08eea3e253174f4e996688f47a9b0f488a6136226424dfad92c793421aae27e916c602f61ca7405aaf63c26d75008d861f4d384e6872bc12cc5be5e603e834680f0b85a659da1b2c20f49b61086340f60ca17d5ec8cbf26824528f6154e90f308e8b4cc7a28e421699cd64441bab843a8ed02967db61853a31bca779b3a210dc16753413b315ee9dc0bd645c9410458e5688001d3f324068261b5d17a811f25a2290b475084e8f3a2867d09706a8b30684a0ae36a07b1221b168fdda5fe2cef6bb60bf655ef7b28e576af2daabd2ba88188b42196e390f3c2cb01842516a54341261089956bc45cb1070dbe0f4f75d4bdc89b374c0b73de44f9df53560f298cd1fbad36b6a2d07d3b7ac9b7d56e7df9a03e7fc0479a055e4fb310343c6a75e1f3c307d596b54c8ab66cb6b4f1fd4b3b498ddeb6b07cc14f597739c0b229e136eaf731df898fa16a7e8c807b2fe0a6214b9a2c802eb4033cfdf8e109f86e600aa2bb8f0be081d68317b7227fd0784a07580ed49841884d1ec3ccdb24edc2d89354f487dbae59897d594856df7337a9a586787440bb11c5dac1648d761a27b49639c7da32932780b8ce9abeaf5c9f668c9400a7d80377221fb9759956fbbe01ac04878e4f0c1dd6134ffd7a3d1ab801bf0e493e678eefb2355abd788ce4bcbe0942a0465819a2b9f7baaa46adea73dca663d0a1df4b320e0d5d859d76297c0ef82d7a1362b803da412849c044595b60f7c810d160fed9af0ba8d12cbeb08583beffaa0fde9780e003300e600f4ea74e308bc9b6c1f94bbfda0a312a558de52569ac485e52bf3afdf260e78f75b67b08f4b51369593674f4a8d6442a4651ee44496c5e3bfac95692213a3563a4ca9e2bfb3355ce4b1e96f2c02fcdc7cf9392ae0364bb81378a7a912c2124b72a56217e1c97bb38cff600ac9f9371d697110ece4b6110d1a32e6bec4f3b450d7e1b6b71e4f9e6e97381707557333f72046dd7402ae332e90c18c7fbeff81d30ae4b04b3801d97aff94cc7ff91151715fa859dc59dfc03c2d18af170a6b38f2b02aa53ff2267af7fcd5b9cbb302cc9948e109604f412e5bed264aafddaa0a078c9c8ec7d4e11b17db59522a266ebb8907f1e2ecc77d2316a161bfbd455cf35c9e1520678b710092114e70abfe2d395c59dd6895a364a31fc752d9c68dec68543c6ae79ff4ce0e26b2e7d1e788cae62cc741b536c7ef9b8f94551faea884e968d826ef34428f32098ac0ebcd56fbe44b08e5c71877640f171d9426f8ae5d292804767327e9bed04a8400ccf803f2098b250a8e08d85112d87de878d541592bf4251fad4696b003c4b94b8031f4c4560f8379598746081dfed2a884e24e225689cba9ef2bac2d6b05f7d833dba187c8a876632f75432f0da1cc37b26edbd782b90b4cdd3b0da1f105e52870c1b9e96bf839af9461ef0260986c2bf67a9018b3d03feb16ab3f7dad03a172109643b192aea2bcdac54a298d8761b9642a6a95777df71612f13b23183bae4bbc1ef27317fc56f47f5fcd6e4b5c9868e1fe0561ae22c99bcb3e89a369e44575d8882e99bc3414137f4b105cfefbc525bfc401970d0ccb366302a91b46158751b98d4009b8b30d2034552de9fc2a497fcbe19ddbe896871e001c0f4b15670c3a5623e052ae71b3664065d44d2fbc6c74c3e0a27f2ac0675a8e3c4de156068742c36fe815c4124598f0e28a6d990b7740f692c70b606bf427c724f13c535ac5962659aca7f9a7a343166be67b442605d6ef5fb854f909c9b9af6adb296699267dd002b91fd7aea91ad3a6f95f839778e5b9c3c5ce310f93b21d1f6b3802df3639921f797f8aeb33fb8789b6ccf401943de41278f2bdb6fde5327ad550565cf7160cc1756fb21882e71799ecb3775adb59af1e14fa6d44b7cf153644093beeee1689c6ff6e65fb228629b3348b60aca1a16714466afa4a5c9ce93af4bf93e2c96ecf5dd15c07f7de8943de6ffb33504bb1aa56a300ee7e95380d42b2e04c1aab807c60b91c56b7c63336dfab881455d1544ac5a3f67b530f5bb1e2086d9d16aa9f63abfc3769fe577b82853dfcebfd6d32cb0c43c6e1819bfb2ebd06c0b9073483e71465546d746cbced26275fb4b2c061c4708f4bcc2a03fb6aa249557bc76a848993a9ba35f8098b35fbdd14477a5ad7c41161f21bda2e7b0b1bbb2615e15923986842784df47ad68f78a2136f382dc767d21fd69f5199fa0ca28783a1eb5df2202db0a6bfcb204dd1abb1554efbc35ad5df384d30e94ade8de0802537eaa03fdd33c2c1e1de8d6c21fd8581d80d3901a59dea59395930af9e3e466e51a8523440f1669263b0b75eba82c1d8faa50cb6474d96ad0710d0f3d334429b0cd39d3fc958744e3d8f0c2f3ad182def0e772735453f2a1eef2390a3d460a58c274936b93f96c2d4b3743407931f2be9ea3383103605f3cc63380a5af4d75d99459cd98f2d1a7c98dfbfce8c693281afa772a20222450d7d92a9ab94f79e889d1263f7f082acb1f2abc5a0995cff4b00cc980875e1342832f864c2ceb12b26947ae1cc64855fd2cddea3b4de2ad1c0e5a8906b7cbd5861b19771756f88e76125f9ccc8bfcfc99159c048cf59680be87cd5cdfd5d1ecdc81945dc854bd951fa79e0e56882cca7c303ebd25ad4d6afe46b98032c55a1f777bdcc6bf06b89e991cbc64f940e4b89c5acba1e6702579da54565d22ea899963abbd80a02428ddd00c84c6bc67e77a99ced4a0012595bdc470c2e0d09893de43c6fb2be29330c52fc28279dabf23fdd3e1081283456ba645d06c3d2092edf154d8ed60b7831f53e41974166c1f55f813d5cdd3de04d35ae1f384660d42a09ff2245b754d7b27ac008710f931a16742c59440bab032220975177ffbedf02cc7c1128f9090aeb8db70457fd72776cc66180fec5ef486396b301c10020a10700", "leafScript": "20975177ffbedf02cc7c1128f9090aeb8db70457fd72776cc66180fec5ef486396b3", "leafVersion": "c0", "leafHash": "a9f2024a0de0d8f2e063968371161bd3ebf7724686c38ff2585c860541a2e893", "p2mrSigMsg": "00030200000020a10700a75f2a5a5ee18d80aa465d88c1e203099778a84611c4da69a908622c5f04c6c065a3abf28eed7c1f8ffd6e9c52076d9d2828ea37e468a2ba09d5353ea032ada644a9b0a60f4e418f19a6653c2d5907b244dc6d97176fafb8e1f57c451cbf6e2edf066fa642a4689526ec2f23644ba5d3dd496948154f10619dd91f7c476f2c0c0200000000256d27ab4c0ee59ccd8c64521521d350c2349c328e0da0b06f825b9428688d57a9f2024a0de0d8f2e063968371161bd3ebf7724686c38ff2585c860541a2e89300ffffffff", "p2mrSighash": "15fa53c14d85fc107ae07c03d705b0bca4ec0eff66905cdb2daba00d8acad80c"}]
